{
  "contractName": "Flipcoin",
  "abi": [
    {
      "inputs": [],
      "payable": false,
      "stateMutability": "nonpayable",
      "type": "constructor"
    },
    {
      "anonymous": false,
      "inputs": [
        {
          "indexed": false,
          "internalType": "address",
          "name": "playAddress",
          "type": "address"
        },
        {
          "indexed": false,
          "internalType": "bool",
          "name": "playResult",
          "type": "bool"
        }
      ],
      "name": "eventPlayResult",
      "type": "event"
    },
    {
      "anonymous": false,
      "inputs": [
        {
          "indexed": false,
          "internalType": "uint256",
          "name": "withdrawResult",
          "type": "uint256"
        }
      ],
      "name": "eventWithdrawResult",
      "type": "event"
    },
    {
      "anonymous": false,
      "inputs": [
        {
          "indexed": false,
          "internalType": "uint256",
          "name": "randomNumber",
          "type": "uint256"
        }
      ],
      "name": "generatedRandomNumber",
      "type": "event"
    },
    {
      "anonymous": false,
      "inputs": [
        {
          "indexed": false,
          "internalType": "string",
          "name": "description",
          "type": "string"
        }
      ],
      "name": "logNewProvableQuery",
      "type": "event"
    },
    {
      "anonymous": false,
      "inputs": [
        {
          "indexed": false,
          "internalType": "string",
          "name": "test",
          "type": "string"
        }
      ],
      "name": "testCallback",
      "type": "event"
    },
    {
      "constant": true,
      "inputs": [],
      "name": "latestNumber",
      "outputs": [
        {
          "internalType": "uint256",
          "name": "",
          "type": "uint256"
        }
      ],
      "payable": false,
      "stateMutability": "view",
      "type": "function"
    },
    {
      "constant": false,
      "inputs": [
        {
          "internalType": "bytes32",
          "name": "_myid",
          "type": "bytes32"
        },
        {
          "internalType": "string",
          "name": "_result",
          "type": "string"
        }
      ],
      "name": "__callback",
      "outputs": [],
      "payable": false,
      "stateMutability": "nonpayable",
      "type": "function"
    },
    {
      "constant": false,
      "inputs": [
        {
          "internalType": "bytes32",
          "name": "_queryId",
          "type": "bytes32"
        },
        {
          "internalType": "string",
          "name": "_result",
          "type": "string"
        },
        {
          "internalType": "bytes",
          "name": "_proof",
          "type": "bytes"
        }
      ],
      "name": "__callback",
      "outputs": [],
      "payable": false,
      "stateMutability": "nonpayable",
      "type": "function"
    },
    {
      "constant": false,
      "inputs": [
        {
          "internalType": "uint256",
          "name": "coinSide",
          "type": "uint256"
        }
      ],
      "name": "flipcoinPlayOracle",
      "outputs": [],
      "payable": true,
      "stateMutability": "payable",
      "type": "function"
    },
    {
      "constant": false,
      "inputs": [
        {
          "internalType": "uint256",
          "name": "coinSide",
          "type": "uint256"
        }
      ],
      "name": "flipcoinPlay",
      "outputs": [],
      "payable": true,
      "stateMutability": "payable",
      "type": "function"
    },
    {
      "constant": true,
      "inputs": [],
      "name": "getCoinPlayer",
      "outputs": [
        {
          "internalType": "uint256",
          "name": "playWin",
          "type": "uint256"
        },
        {
          "internalType": "uint256",
          "name": "playLoss",
          "type": "uint256"
        },
        {
          "internalType": "uint256",
          "name": "playBalance",
          "type": "uint256"
        },
        {
          "internalType": "uint256",
          "name": "playLastBet",
          "type": "uint256"
        },
        {
          "internalType": "uint256",
          "name": "playLastCoinSide",
          "type": "uint256"
        },
        {
          "internalType": "bool",
          "name": "playLastResult",
          "type": "bool"
        },
        {
          "internalType": "bool",
          "name": "playWaiting",
          "type": "bool"
        },
        {
          "internalType": "bool",
          "name": "playExists",
          "type": "bool"
        }
      ],
      "payable": false,
      "stateMutability": "view",
      "type": "function"
    },
    {
      "constant": true,
      "inputs": [],
      "name": "getCoinPlayerBalance",
      "outputs": [
        {
          "internalType": "uint256",
          "name": "",
          "type": "uint256"
        }
      ],
      "payable": false,
      "stateMutability": "view",
      "type": "function"
    },
    {
      "constant": false,
      "inputs": [],
      "name": "withdrawWinBalance",
      "outputs": [],
      "payable": false,
      "stateMutability": "nonpayable",
      "type": "function"
    },
    {
      "constant": false,
      "inputs": [],
      "name": "destroyContract",
      "outputs": [],
      "payable": false,
      "stateMutability": "nonpayable",
      "type": "function"
    }
  ],
  "bytecode": "0x60806040523480156200001157600080fd5b50336000806101000a81548173ffffffffffffffffffffffffffffffffffffffff021916908373ffffffffffffffffffffffffffffffffffffffff16021790555062000067603060f81b6200006d60201b60201c565b62000a91565b600073ffffffffffffffffffffffffffffffffffffffff16600260009054906101000a900473ffffffffffffffffffffffffffffffffffffffff1673ffffffffffffffffffffffffffffffffffffffff161480620000fd57506000620000fb600260009054906101000a900473ffffffffffffffffffffffffffffffffffffffff16620003d360201b60201c565b145b156200011757620001156000620003de60201b60201c565b505b600260009054906101000a900473ffffffffffffffffffffffffffffffffffffffff1673ffffffffffffffffffffffffffffffffffffffff166338cc48316040518163ffffffff1660e01b8152600401602060405180830381600087803b1580156200018257600080fd5b505af115801562000197573d6000803e3d6000fd5b505050506040513d6020811015620001ae57600080fd5b810190808051906020019092919050505073ffffffffffffffffffffffffffffffffffffffff16600160009054906101000a900473ffffffffffffffffffffffffffffffffffffffff1673ffffffffffffffffffffffffffffffffffffffff1614620002fd57600260009054906101000a900473ffffffffffffffffffffffffffffffffffffffff1673ffffffffffffffffffffffffffffffffffffffff166338cc48316040518163ffffffff1660e01b8152600401602060405180830381600087803b1580156200027f57600080fd5b505af115801562000294573d6000803e3d6000fd5b505050506040513d6020811015620002ab57600080fd5b8101908080519060200190929190505050600160006101000a81548173ffffffffffffffffffffffffffffffffffffffff021916908373ffffffffffffffffffffffffffffffffffffffff1602179055505b600160009054906101000a900473ffffffffffffffffffffffffffffffffffffffff1673ffffffffffffffffffffffffffffffffffffffff1663688dcfd7826040518263ffffffff1660e01b815260040180827effffffffffffffffffffffffffffffffffffffffffffffffffffffffffffff19167effffffffffffffffffffffffffffffffffffffffffffffffffffffffffffff19168152602001915050600060405180830381600087803b158015620003b757600080fd5b505af1158015620003cc573d6000803e3d6000fd5b5050505050565b6000813b9050919050565b6000620003f0620003f760201b60201c565b9050919050565b6000806200041f731d3b2638a7cc9f2cb3d298a3da7a90b67e5506ed620003d360201b60201c565b1115620004cb57731d3b2638a7cc9f2cb3d298a3da7a90b67e5506ed600260006101000a81548173ffffffffffffffffffffffffffffffffffffffff021916908373ffffffffffffffffffffffffffffffffffffffff160217905550620004c16040518060400160405280600b81526020017f6574685f6d61696e6e6574000000000000000000000000000000000000000000815250620009c660201b60201c565b60019050620009c3565b6000620004f273c03a2615d5efaf5f49f60b7bb6583eaec212fdf1620003d360201b60201c565b11156200059e5773c03a2615d5efaf5f49f60b7bb6583eaec212fdf1600260006101000a81548173ffffffffffffffffffffffffffffffffffffffff021916908373ffffffffffffffffffffffffffffffffffffffff160217905550620005946040518060400160405280600c81526020017f6574685f726f707374656e330000000000000000000000000000000000000000815250620009c660201b60201c565b60019050620009c3565b6000620005c573b7a07bcf2ba2f2703b24c0691b5278999c59ac7e620003d360201b60201c565b1115620006715773b7a07bcf2ba2f2703b24c0691b5278999c59ac7e600260006101000a81548173ffffffffffffffffffffffffffffffffffffffff021916908373ffffffffffffffffffffffffffffffffffffffff160217905550620006676040518060400160405280600981526020017f6574685f6b6f76616e0000000000000000000000000000000000000000000000815250620009c660201b60201c565b60019050620009c3565b60006200069873146500cfd35b22e4a392fe0adc06de1a1368ed48620003d360201b60201c565b1115620007445773146500cfd35b22e4a392fe0adc06de1a1368ed48600260006101000a81548173ffffffffffffffffffffffffffffffffffffffff021916908373ffffffffffffffffffffffffffffffffffffffff1602179055506200073a6040518060400160405280600b81526020017f6574685f72696e6b656279000000000000000000000000000000000000000000815250620009c660201b60201c565b60019050620009c3565b60006200076b73a2998efd205fb9d4b4963afb70778d6354ad3a41620003d360201b60201c565b1115620008175773a2998efd205fb9d4b4963afb70778d6354ad3a41600260006101000a81548173ffffffffffffffffffffffffffffffffffffffff021916908373ffffffffffffffffffffffffffffffffffffffff1602179055506200080d6040518060400160405280600a81526020017f6574685f676f65726c6900000000000000000000000000000000000000000000815250620009c660201b60201c565b60019050620009c3565b60006200083e736f485c8bf6fc43ea212e93bbf8ce046c7f1cb475620003d360201b60201c565b1115620008a457736f485c8bf6fc43ea212e93bbf8ce046c7f1cb475600260006101000a81548173ffffffffffffffffffffffffffffffffffffffff021916908373ffffffffffffffffffffffffffffffffffffffff16021790555060019050620009c3565b6000620008cb7320e12a1f859b3feae5fb2a0a32c18f5a65555bbf620003d360201b60201c565b111562000931577320e12a1f859b3feae5fb2a0a32c18f5a65555bbf600260006101000a81548173ffffffffffffffffffffffffffffffffffffffff021916908373ffffffffffffffffffffffffffffffffffffffff16021790555060019050620009c3565b6000620009587351efaf4c8b3c9afbd5ab9f4bbc82784ab6ef8faa620003d360201b60201c565b1115620009be577351efaf4c8b3c9afbd5ab9f4bbc82784ab6ef8faa600260006101000a81548173ffffffffffffffffffffffffffffffffffffffff021916908373ffffffffffffffffffffffffffffffffffffffff16021790555060019050620009c3565b600090505b90565b8060039080519060200190620009de929190620009e2565b5050565b828054600181600116156101000203166002900490600052602060002090601f016020900481019282601f1062000a2557805160ff191683800117855562000a56565b8280016001018555821562000a56579182015b8281111562000a5557825182559160200191906001019062000a38565b5b50905062000a65919062000a69565b5090565b62000a8e91905b8082111562000a8a57600081600090555060010162000a70565b5090565b90565b6146828062000aa16000396000f3fe6080604052600436106100865760003560e01c8063736654ea11610059578063736654ea1461030b5780639723894714610336578063a2a6fdf91461039e578063dc34b0aa146103b5578063eb921ebc146103e057610086565b8063092a5cce1461008b57806327dc297e146100a257806338bbfa50146101745780634c488b76146102dd575b600080fd5b34801561009757600080fd5b506100a061040e565b005b3480156100ae57600080fd5b50610172600480360360408110156100c557600080fd5b8101908080359060200190929190803590602001906401000000008111156100ec57600080fd5b8201836020820111156100fe57600080fd5b8035906020019184600183028401116401000000008311171561012057600080fd5b91908080601f016020809104026020016040519081016040528093929190818152602001838380828437600081840152601f19601f82011690508083019250505050505050919291929050505061050a565b005b34801561018057600080fd5b506102db6004803603606081101561019757600080fd5b8101908080359060200190929190803590602001906401000000008111156101be57600080fd5b8201836020820111156101d057600080fd5b803590602001918460018302840111640100000000831117156101f257600080fd5b91908080601f016020809104026020016040519081016040528093929190818152602001838380828437600081840152601f19601f8201169050808301925050505050505091929192908035906020019064010000000081111561025557600080fd5b82018360208201111561026757600080fd5b8035906020019184600183028401116401000000008311171561028957600080fd5b91908080601f016020809104026020016040519081016040528093929190818152602001838380828437600081840152601f19601f82011690508083019250505050505050919291929050505061054d565b005b610309600480360360208110156102f357600080fd5b8101908080359060200190929190505050610a47565b005b34801561031757600080fd5b50610320610e52565b6040518082815260200191505060405180910390f35b34801561034257600080fd5b5061034b610ea1565b604051808981526020018881526020018781526020018681526020018581526020018415151515815260200183151515158152602001821515151581526020019850505050505050505060405180910390f35b3480156103aa57600080fd5b506103b361116f565b005b3480156103c157600080fd5b506103ca61138b565b6040518082815260200191505060405180910390f35b61040c600480360360208110156103f657600080fd5b8101908080359060200190929190505050611391565b005b6000809054906101000a900473ffffffffffffffffffffffffffffffffffffffff1673ffffffffffffffffffffffffffffffffffffffff163373ffffffffffffffffffffffffffffffffffffffff16146104d0576040517f08c379a00000000000000000000000000000000000000000000000000000000081526004018080602001828103825260208152602001807f7468652063616c6c6572206e6565647320746f20626520746865206f776e657281525060200191505060405180910390fd5b6000809054906101000a900473ffffffffffffffffffffffffffffffffffffffff1673ffffffffffffffffffffffffffffffffffffffff16ff5b610549828260006040519080825280601f01601f1916602001820160405280156105435781602001600182028038833980820191505090505b5061054d565b5050565b6105556116c3565b73ffffffffffffffffffffffffffffffffffffffff163373ffffffffffffffffffffffffffffffffffffffff161461058c57600080fd5b60006105998484846119e3565b60ff161461060e577f2275abca36a5ac7cb39d8d9f16a520a34f334fe9833f9b155d4f0a1c3fa0fe8d60405180806020018281038252601d8152602001807f70726f6f6620766572696669636174696f6e20686173206661696c656400000081525060200191505060405180910390a1610a42565b60006008600085815260200190815260200160002060009054906101000a900473ffffffffffffffffffffffffffffffffffffffff16905060006002846040516020018082805190602001908083835b60208310610681578051825260208201915060208101905060208303925061065e565b6001836020036101000a0380198251168184511680821785525050505050509050019150506040516020818303038152906040528051906020012060001c816106c657fe5b0690508060068190555060016006541415610891576002600760008473ffffffffffffffffffffffffffffffffffffffff1673ffffffffffffffffffffffffffffffffffffffff1681526020019081526020016000206003015402600760008473ffffffffffffffffffffffffffffffffffffffff1673ffffffffffffffffffffffffffffffffffffffff168152602001908152602001600020600201600082825401925050819055506001600760008473ffffffffffffffffffffffffffffffffffffffff1673ffffffffffffffffffffffffffffffffffffffff168152602001908152602001600020600001600082825401925050819055506001600760008473ffffffffffffffffffffffffffffffffffffffff1673ffffffffffffffffffffffffffffffffffffffff16815260200190815260200160002060050160006101000a81548160ff0219169083151502179055507fb71baf53bab5a98b86520c6195a8e1946007cb96da27601daf0f12c562494391826001604051808373ffffffffffffffffffffffffffffffffffffffff1673ffffffffffffffffffffffffffffffffffffffff168152602001821515151581526020019250505060405180910390a16109ae565b6001600760008473ffffffffffffffffffffffffffffffffffffffff1673ffffffffffffffffffffffffffffffffffffffff168152602001908152602001600020600101600082825401925050819055506000600760008473ffffffffffffffffffffffffffffffffffffffff1673ffffffffffffffffffffffffffffffffffffffff16815260200190815260200160002060050160006101000a81548160ff0219169083151502179055507fb71baf53bab5a98b86520c6195a8e1946007cb96da27601daf0f12c562494391826000604051808373ffffffffffffffffffffffffffffffffffffffff1673ffffffffffffffffffffffffffffffffffffffff168152602001821515151581526020019250505060405180910390a15b6000600760008473ffffffffffffffffffffffffffffffffffffffff1673ffffffffffffffffffffffffffffffffffffffff16815260200190815260200160002060050160016101000a81548160ff0219169083151502179055506008600086815260200190815260200160002060006101000a81549073ffffffffffffffffffffffffffffffffffffffff021916905550505b505050565b60003411610abd576040517f08c379a00000000000000000000000000000000000000000000000000000000081526004018080602001828103825260188152602001807f746869732066756e6374696f6e20686173206120636f7374000000000000000081525060200191505060405180910390fd5b600033905034600760008373ffffffffffffffffffffffffffffffffffffffff1673ffffffffffffffffffffffffffffffffffffffff1681526020019081526020016000206003018190555081600760008373ffffffffffffffffffffffffffffffffffffffff1673ffffffffffffffffffffffffffffffffffffffff168152602001908152602001600020600401819055506001600760008373ffffffffffffffffffffffffffffffffffffffff1673ffffffffffffffffffffffffffffffffffffffff16815260200190815260200160002060050160026101000a81548160ff02191690831515021790555060024281610bb557fe5b06821415610d315760023402600760008373ffffffffffffffffffffffffffffffffffffffff1673ffffffffffffffffffffffffffffffffffffffff168152602001908152602001600020600201600082825401925050819055506001600760008373ffffffffffffffffffffffffffffffffffffffff1673ffffffffffffffffffffffffffffffffffffffff168152602001908152602001600020600001600082825401925050819055506001600760008373ffffffffffffffffffffffffffffffffffffffff1673ffffffffffffffffffffffffffffffffffffffff16815260200190815260200160002060050160006101000a81548160ff0219169083151502179055507fb71baf53bab5a98b86520c6195a8e1946007cb96da27601daf0f12c562494391816001604051808373ffffffffffffffffffffffffffffffffffffffff1673ffffffffffffffffffffffffffffffffffffffff168152602001821515151581526020019250505060405180910390a1610e4e565b6001600760008373ffffffffffffffffffffffffffffffffffffffff1673ffffffffffffffffffffffffffffffffffffffff168152602001908152602001600020600101600082825401925050819055506000600760008373ffffffffffffffffffffffffffffffffffffffff1673ffffffffffffffffffffffffffffffffffffffff16815260200190815260200160002060050160006101000a81548160ff0219169083151502179055507fb71baf53bab5a98b86520c6195a8e1946007cb96da27601daf0f12c562494391816000604051808373ffffffffffffffffffffffffffffffffffffffff1673ffffffffffffffffffffffffffffffffffffffff168152602001821515151581526020019250505060405180910390a15b5050565b600080339050600760008273ffffffffffffffffffffffffffffffffffffffff1673ffffffffffffffffffffffffffffffffffffffff1681526020019081526020016000206002015491505090565b600080600080600080600080600033905060011515600760008373ffffffffffffffffffffffffffffffffffffffff1673ffffffffffffffffffffffffffffffffffffffff16815260200190815260200160002060050160029054906101000a900460ff161515141561116357600760008273ffffffffffffffffffffffffffffffffffffffff1673ffffffffffffffffffffffffffffffffffffffff16815260200190815260200160002060000154600760008373ffffffffffffffffffffffffffffffffffffffff1673ffffffffffffffffffffffffffffffffffffffff16815260200190815260200160002060010154600760008473ffffffffffffffffffffffffffffffffffffffff1673ffffffffffffffffffffffffffffffffffffffff16815260200190815260200160002060020154600760008573ffffffffffffffffffffffffffffffffffffffff1673ffffffffffffffffffffffffffffffffffffffff16815260200190815260200160002060030154600760008673ffffffffffffffffffffffffffffffffffffffff1673ffffffffffffffffffffffffffffffffffffffff16815260200190815260200160002060040154600760008773ffffffffffffffffffffffffffffffffffffffff1673ffffffffffffffffffffffffffffffffffffffff16815260200190815260200160002060050160009054906101000a900460ff16600760008873ffffffffffffffffffffffffffffffffffffffff1673ffffffffffffffffffffffffffffffffffffffff16815260200190815260200160002060050160019054906101000a900460ff16600760008973ffffffffffffffffffffffffffffffffffffffff1673ffffffffffffffffffffffffffffffffffffffff16815260200190815260200160002060050160029054906101000a900460ff169850985098509850985098509850985050611165565b505b9091929394959697565b600033905060003073ffffffffffffffffffffffffffffffffffffffff163190506000600760008473ffffffffffffffffffffffffffffffffffffffff1673ffffffffffffffffffffffffffffffffffffffff168152602001908152602001600020600201549050600760008473ffffffffffffffffffffffffffffffffffffffff1673ffffffffffffffffffffffffffffffffffffffff16815260200190815260200160002060008082016000905560018201600090556002820160009055600382016000905560048201600090556005820160006101000a81549060ff02191690556005820160016101000a81549060ff02191690556005820160026101000a81549060ff02191690555050818111611307573373ffffffffffffffffffffffffffffffffffffffff166108fc829081150290604051600060405180830381858888f193505050501580156112ca573d6000803e3d6000fd5b507f6c5b4cf6bda589fc7fd368d6015be5fe048bee8562fa4c398dcd616622962c59816040518082815260200191505060405180910390a1611386565b3373ffffffffffffffffffffffffffffffffffffffff166108fc839081150290604051600060405180830381858888f1935050505015801561134d573d6000803e3d6000fd5b507f6c5b4cf6bda589fc7fd368d6015be5fe048bee8562fa4c398dcd616622962c59826040518082815260200191505060405180910390a15b505050565b60065481565b60003411611407576040517f08c379a00000000000000000000000000000000000000000000000000000000081526004018080602001828103825260188152602001807f746869732066756e6374696f6e20686173206120636f7374000000000000000081525060200191505060405180910390fd5b60001515600760003373ffffffffffffffffffffffffffffffffffffffff1673ffffffffffffffffffffffffffffffffffffffff16815260200190815260200160002060050160019054906101000a900460ff161515146114b3576040517f08c379a00000000000000000000000000000000000000000000000000000000081526004018080602001828103825260268152602001806145b26026913960400191505060405180910390fd5b60008090506000600190506000620493e0905060003390506001600760008373ffffffffffffffffffffffffffffffffffffffff1673ffffffffffffffffffffffffffffffffffffffff16815260200190815260200160002060050160026101000a81548160ff0219169083151502179055506001600760008373ffffffffffffffffffffffffffffffffffffffff1673ffffffffffffffffffffffffffffffffffffffff16815260200190815260200160002060050160016101000a81548160ff02191690831515021790555034600760008373ffffffffffffffffffffffffffffffffffffffff1673ffffffffffffffffffffffffffffffffffffffff1681526020019081526020016000206003018190555084600760008373ffffffffffffffffffffffffffffffffffffffff1673ffffffffffffffffffffffffffffffffffffffff16815260200190815260200160002060040181905550600061161c858585611b13565b90507f94f2559b5e2b297de3db1587daf2352e872ada3dad01dab9ee3733592fa22ed36040518080602001828103825260368152602001806146186036913960400191505060405180910390a1816008600083815260200190815260200160002060006101000a81548173ffffffffffffffffffffffffffffffffffffffff021916908373ffffffffffffffffffffffffffffffffffffffff160217905550505050505050565b60008073ffffffffffffffffffffffffffffffffffffffff16600260009054906101000a900473ffffffffffffffffffffffffffffffffffffffff1673ffffffffffffffffffffffffffffffffffffffff16148061174b57506000611749600260009054906101000a900473ffffffffffffffffffffffffffffffffffffffff166120ae565b145b1561175c5761175a60006120b9565b505b600260009054906101000a900473ffffffffffffffffffffffffffffffffffffffff1673ffffffffffffffffffffffffffffffffffffffff166338cc48316040518163ffffffff1660e01b8152600401602060405180830381600087803b1580156117c657600080fd5b505af11580156117da573d6000803e3d6000fd5b505050506040513d60208110156117f057600080fd5b810190808051906020019092919050505073ffffffffffffffffffffffffffffffffffffffff16600160009054906101000a900473ffffffffffffffffffffffffffffffffffffffff1673ffffffffffffffffffffffffffffffffffffffff161461193b57600260009054906101000a900473ffffffffffffffffffffffffffffffffffffffff1673ffffffffffffffffffffffffffffffffffffffff166338cc48316040518163ffffffff1660e01b8152600401602060405180830381600087803b1580156118bf57600080fd5b505af11580156118d3573d6000803e3d6000fd5b505050506040513d60208110156118e957600080fd5b8101908080519060200190929190505050600160006101000a81548173ffffffffffffffffffffffffffffffffffffffff021916908373ffffffffffffffffffffffffffffffffffffffff1602179055505b600160009054906101000a900473ffffffffffffffffffffffffffffffffffffffff1673ffffffffffffffffffffffffffffffffffffffff1663c281d19e6040518163ffffffff1660e01b815260040160206040518083038186803b1580156119a357600080fd5b505afa1580156119b7573d6000803e3d6000fd5b505050506040513d60208110156119cd57600080fd5b8101908080519060200190929190505050905090565b60007f4c0000000000000000000000000000000000000000000000000000000000000082600081518110611a1357fe5b602001015160f81c60f81b7effffffffffffffffffffffffffffffffffffffffffffffffffffffffffffff1916141580611aa657507f500000000000000000000000000000000000000000000000000000000000000082600181518110611a7657fe5b602001015160f81c60f81b7effffffffffffffffffffffffffffffffffffffffffffffffffffffffffffff191614155b80611ad25750600160ff1682600281518110611abe57fe5b602001015160f81c60f81b60f81c60ff1614155b15611ae05760019050611b0c565b6000611af5838686611af06120ca565b61216c565b905080611b06576002915050611b0c565b60009150505b9392505050565b60008083118015611b25575060208311155b611b2e57600080fd5b600a84029350606060016040519080825280601f01601f191660200182016040528015611b6a5781602001600182028038833980820191505090505b5090508360f81b81600081518110611b7e57fe5b60200101907effffffffffffffffffffffffffffffffffffffffffffffffffffffffffffff1916908160001a905350606060206040519080825280601f01601f191660200182016040528015611be35781602001600182028038833980820191505090505b509050606060206040519080825280601f01601f191660200182016040528015611c1c5781602001600182028038833980820191505090505b5090506000611c29612817565b905060208352424118600143034018602084015260208252806020830152606060206040519080825280601f01601f191660200182016040528015611c7d5781602001600182028038833980820191505090505b509050886020820152606060086040519080825280601f01601f191660200182016040528015611cbc5781602001600182028038833980820191505090505b509050611ccf8260186008846000612b37565b50611cd86144cb565b60405180608001604052808781526020018881526020018681526020018481525090506000611d3d6040518060400160405280600681526020017f72616e646f6d0000000000000000000000000000000000000000000000000000815250838c612b96565b9050606060086040519080825280601f01601f191660200182016040528015611d755781602001600182028038833980820191505090505b50905060208401517f0100000000000000000000000000000000000000000000000000000000000000810460278301537e01000000000000000000000000000000000000000000000000000000000000810460268301537d010000000000000000000000000000000000000000000000000000000000810460258301537c0100000000000000000000000000000000000000000000000000000000810460248301537b01000000000000000000000000000000000000000000000000000000810460238301537a01000000000000000000000000000000000000000000000000000081046022830153790100000000000000000000000000000000000000000000000000810460218301537801000000000000000000000000000000000000000000000000810460208301535061209b828285600160048110611eb457fe5b6020020151600287600060048110611ec857fe5b60200201516040518082805190602001908083835b60208310611f005780518252602082019150602081019050602083039250611edd565b6001836020036101000a038019825116818451168082178552505050505050905001915050602060405180830381855afa158015611f42573d6000803e3d6000fd5b5050506040513d6020811015611f5757600080fd5b810190808051906020019092919050505087600260048110611f7557fe5b60200201516040516020018085805190602001908083835b60208310611fb05780518252602082019150602081019050602083039250611f8d565b6001836020036101000a03801982511681845116808217855250505050505090500184805190602001908083835b602083106120015780518252602082019150602081019050602083039250611fde565b6001836020036101000a03801982511681845116808217855250505050505090500183815260200182805190602001908083835b602083106120585780518252602082019150602081019050602083039250612035565b6001836020036101000a03801982511681845116808217855250505050505090500194505050505060405160208183030381529060405280519060200120612f05565b8199505050505050505050509392505050565b6000813b9050919050565b60006120c3612f21565b9050919050565b606060038054600181600116156101000203166002900480601f0160208091040260200160405190810160405280929190818152602001828054600181600116156101000203166002900480156121625780601f1061213757610100808354040283529160200191612162565b820191906000526020600020905b81548152906001019060200180831161214557829003601f168201915b5050505050905090565b600080602060028760458151811061218057fe5b602001015160f81c60f81b60f81c60ff1601604401019050606060206040519080825280601f01601f1916602001820160405280156121ce5781602001600182028038833980820191505090505b5090506121e087836020846000612b37565b50600284876040516020018083805190602001908083835b6020831061221b57805182526020820191506020810190506020830392506121f8565b6001836020036101000a038019825116818451168082178552505050505050905001828152602001925050506040516020818303038152906040526040518082805190602001908083835b602083106122895780518252602082019150602081019050602083039250612266565b6001836020036101000a038019825116818451168082178552505050505050905001915050602060405180830381855afa1580156122cb573d6000803e3d6000fd5b5050506040513d60208110156122e057600080fd5b8101908080519060200190929190505050604051602001808281526020019150506040516020818303038152906040528051906020012081805190602001201461232f5760009250505061280f565b6060600288600160498601018151811061234557fe5b602001015160f81c60f81b60f81c60ff16016040519080825280601f01601f1916602001820160405280156123895781602001600182028038833980820191505090505b50905061239e88604985018351846000612b37565b506124696002826040518082805190602001908083835b602083106123d857805182526020820191506020810190506020830392506123b5565b6001836020036101000a038019825116818451168082178552505050505050905001915050602060405180830381855afa15801561241a573d6000803e3d6000fd5b5050506040513d602081101561242f57600080fd5b8101908080519060200190929190505050878a600860208801018151811061245357fe5b602001015160f81c60f81b60f81c60ff16613478565b612479576000935050505061280f565b606060296040519080825280601f01601f1916602001820160405280156124af5781602001600182028038833980820191505090505b5090506124c489602086016029846000612b37565b506060604080519080825280601f01601f1916602001820160405280156124fa5781602001600182028038833980820191505090505b50905060006041845160296020890101010190506125208b604083036040856000612b37565b5060006002836040518082805190602001908083835b602083106125595780518252602082019150602081019050602083039250612536565b6001836020036101000a038019825116818451168082178552505050505050905001915050602060405180830381855afa15801561259b573d6000803e3d6000fd5b5050506040513d60208110156125b057600080fd5b8101908080519060200190929190505050905083816040516020018083805190602001908083835b602083106125fb57805182526020820191506020810190506020830392506125d8565b6001836020036101000a0380198251168184511680821785525050505050509050018281526020019250505060405160208183030381529060405280519060200120600460008d815260200190815260200160002054141561267357600460008c815260200190815260200160002060009055612683565b600097505050505050505061280f565b606060496040519080825280601f01601f1916602001820160405280156126b95781602001600182028038833980820191505090505b5090506126cb8d896049846000612b37565b506127746002826040518082805190602001908083835b6020831061270557805182526020820191506020810190506020830392506126e2565b6001836020036101000a038019825116818451168082178552505050505050905001915050602060405180830381855afa158015612747573d6000803e3d6000fd5b5050506040513d602081101561275c57600080fd5b81019080805190602001909291905050508786613528565b6127895760009850505050505050505061280f565b6005600083815260200190815260200160002060009054906101000a900460ff166127e3576127b88d846136e6565b6005600084815260200190815260200160002060006101000a81548160ff0219169083151502179055505b6005600083815260200190815260200160002060009054906101000a900460ff16985050505050505050505b949350505050565b60008073ffffffffffffffffffffffffffffffffffffffff16600260009054906101000a900473ffffffffffffffffffffffffffffffffffffffff1673ffffffffffffffffffffffffffffffffffffffff16148061289f5750600061289d600260009054906101000a900473ffffffffffffffffffffffffffffffffffffffff166120ae565b145b156128b0576128ae60006120b9565b505b600260009054906101000a900473ffffffffffffffffffffffffffffffffffffffff1673ffffffffffffffffffffffffffffffffffffffff166338cc48316040518163ffffffff1660e01b8152600401602060405180830381600087803b15801561291a57600080fd5b505af115801561292e573d6000803e3d6000fd5b505050506040513d602081101561294457600080fd5b810190808051906020019092919050505073ffffffffffffffffffffffffffffffffffffffff16600160009054906101000a900473ffffffffffffffffffffffffffffffffffffffff1673ffffffffffffffffffffffffffffffffffffffff1614612a8f57600260009054906101000a900473ffffffffffffffffffffffffffffffffffffffff1673ffffffffffffffffffffffffffffffffffffffff166338cc48316040518163ffffffff1660e01b8152600401602060405180830381600087803b158015612a1357600080fd5b505af1158015612a27573d6000803e3d6000fd5b505050506040513d6020811015612a3d57600080fd5b8101908080519060200190929190505050600160006101000a81548173ffffffffffffffffffffffffffffffffffffffff021916908373ffffffffffffffffffffffffffffffffffffffff1602179055505b600160009054906101000a900473ffffffffffffffffffffffffffffffffffffffff1673ffffffffffffffffffffffffffffffffffffffff1663abaa5f3e6040518163ffffffff1660e01b815260040160206040518083038186803b158015612af757600080fd5b505afa158015612b0b573d6000803e3d6000fd5b505050506040513d6020811015612b2157600080fd5b8101908080519060200190929190505050905090565b6060600082850190508084511015612b4e57600080fd5b600086602001905060008460200190505b868860200101821015612b875781890151808288015250602082019150602081019050612b5f565b85935050505095945050505050565b60008073ffffffffffffffffffffffffffffffffffffffff16600260009054906101000a900473ffffffffffffffffffffffffffffffffffffffff1673ffffffffffffffffffffffffffffffffffffffff161480612c1e57506000612c1c600260009054906101000a900473ffffffffffffffffffffffffffffffffffffffff166120ae565b145b15612c2f57612c2d60006120b9565b505b600260009054906101000a900473ffffffffffffffffffffffffffffffffffffffff1673ffffffffffffffffffffffffffffffffffffffff166338cc48316040518163ffffffff1660e01b8152600401602060405180830381600087803b158015612c9957600080fd5b505af1158015612cad573d6000803e3d6000fd5b505050506040513d6020811015612cc357600080fd5b810190808051906020019092919050505073ffffffffffffffffffffffffffffffffffffffff16600160009054906101000a900473ffffffffffffffffffffffffffffffffffffffff1673ffffffffffffffffffffffffffffffffffffffff1614612e0e57600260009054906101000a900473ffffffffffffffffffffffffffffffffffffffff1673ffffffffffffffffffffffffffffffffffffffff166338cc48316040518163ffffffff1660e01b8152600401602060405180830381600087803b158015612d9257600080fd5b505af1158015612da6573d6000803e3d6000fd5b505050506040513d6020811015612dbc57600080fd5b8101908080519060200190929190505050600160006101000a81548173ffffffffffffffffffffffffffffffffffffffff021916908373ffffffffffffffffffffffffffffffffffffffff1602179055505b60606004604051908082528060200260200182016040528015612e4557816020015b6060815260200190600190039081612e305790505b50905083600060048110612e5557fe5b602002015181600081518110612e6757fe5b602002602001018190525083600160048110612e7f57fe5b602002015181600181518110612e9157fe5b602002602001018190525083600260048110612ea957fe5b602002015181600281518110612ebb57fe5b602002602001018190525083600360048110612ed357fe5b602002015181600381518110612ee557fe5b6020026020010181905250612efb858285613afe565b9150509392505050565b8060046000848152602001908152602001600020819055505050565b600080612f41731d3b2638a7cc9f2cb3d298a3da7a90b67e5506ed6120ae565b1115612fe357731d3b2638a7cc9f2cb3d298a3da7a90b67e5506ed600260006101000a81548173ffffffffffffffffffffffffffffffffffffffff021916908373ffffffffffffffffffffffffffffffffffffffff160217905550612fda6040518060400160405280600b81526020017f6574685f6d61696e6e6574000000000000000000000000000000000000000000815250614064565b60019050613475565b600061300273c03a2615d5efaf5f49f60b7bb6583eaec212fdf16120ae565b11156130a45773c03a2615d5efaf5f49f60b7bb6583eaec212fdf1600260006101000a81548173ffffffffffffffffffffffffffffffffffffffff021916908373ffffffffffffffffffffffffffffffffffffffff16021790555061309b6040518060400160405280600c81526020017f6574685f726f707374656e330000000000000000000000000000000000000000815250614064565b60019050613475565b60006130c373b7a07bcf2ba2f2703b24c0691b5278999c59ac7e6120ae565b11156131655773b7a07bcf2ba2f2703b24c0691b5278999c59ac7e600260006101000a81548173ffffffffffffffffffffffffffffffffffffffff021916908373ffffffffffffffffffffffffffffffffffffffff16021790555061315c6040518060400160405280600981526020017f6574685f6b6f76616e0000000000000000000000000000000000000000000000815250614064565b60019050613475565b600061318473146500cfd35b22e4a392fe0adc06de1a1368ed486120ae565b11156132265773146500cfd35b22e4a392fe0adc06de1a1368ed48600260006101000a81548173ffffffffffffffffffffffffffffffffffffffff021916908373ffffffffffffffffffffffffffffffffffffffff16021790555061321d6040518060400160405280600b81526020017f6574685f72696e6b656279000000000000000000000000000000000000000000815250614064565b60019050613475565b600061324573a2998efd205fb9d4b4963afb70778d6354ad3a416120ae565b11156132e75773a2998efd205fb9d4b4963afb70778d6354ad3a41600260006101000a81548173ffffffffffffffffffffffffffffffffffffffff021916908373ffffffffffffffffffffffffffffffffffffffff1602179055506132de6040518060400160405280600a81526020017f6574685f676f65726c6900000000000000000000000000000000000000000000815250614064565b60019050613475565b6000613306736f485c8bf6fc43ea212e93bbf8ce046c7f1cb4756120ae565b111561336a57736f485c8bf6fc43ea212e93bbf8ce046c7f1cb475600260006101000a81548173ffffffffffffffffffffffffffffffffffffffff021916908373ffffffffffffffffffffffffffffffffffffffff16021790555060019050613475565b60006133897320e12a1f859b3feae5fb2a0a32c18f5a65555bbf6120ae565b11156133ed577320e12a1f859b3feae5fb2a0a32c18f5a65555bbf600260006101000a81548173ffffffffffffffffffffffffffffffffffffffff021916908373ffffffffffffffffffffffffffffffffffffffff16021790555060019050613475565b600061340c7351efaf4c8b3c9afbd5ab9f4bbc82784ab6ef8faa6120ae565b1115613470577351efaf4c8b3c9afbd5ab9f4bbc82784ab6ef8faa600260006101000a81548173ffffffffffffffffffffffffffffffffffffffff021916908373ffffffffffffffffffffffffffffffffffffffff16021790555060019050613475565b600090505b90565b600080600190508284511461348c57600080fd5b60008090505b8381101561351c578481815181106134a657fe5b602001015160f81c60f81b7effffffffffffffffffffffffffffffffffffffffffffffffffffffffffffff19168682602081106134df57fe5b1a60f81b7effffffffffffffffffffffffffffffffffffffffffffffffffffffffffffff19161461350f57600091505b8080600101915050613492565b50809150509392505050565b6000806000806000606060206040519080825280601f01601f1916602001820160405280156135665781602001600182028038833980820191505090505b509050600060208960038151811061357a57fe5b602001015160f81c60f81b60f81c60ff160360040190506135a089826020856000612b37565b9150606060206040519080825280601f01601f1916602001820160405280156135d85781602001600182028038833980820191505090505b5090506022820191506136148a60208c60018603815181106135f657fe5b602001015160f81c60f81b60f81c60ff160384016020846000612b37565b905060208301519450602081015193506136318b601b878761407e565b80975081985050508573ffffffffffffffffffffffffffffffffffffffff16898051906020012060001c73ffffffffffffffffffffffffffffffffffffffff1614156136875760019750505050505050506136df565b6136948b601c878761407e565b80975081985050508573ffffffffffffffffffffffffffffffffffffffff16898051906020012060001c73ffffffffffffffffffffffffffffffffffffffff16149750505050505050505b9392505050565b600080606060028560018601815181106136fc57fe5b602001015160f81c60f81b60f81c60ff16016040519080825280601f01601f1916602001820160405280156137405781602001600182028038833980820191505090505b50905061375285858351846000612b37565b506060604080519080825280601f01601f1916602001820160405280156137885781602001600182028038833980820191505090505b50905061379b8660046040846000612b37565b50606060626040519080825280601f01601f1916602001820160405280156137d25781602001600182028038833980820191505090505b509050600160f81b816000815181106137e757fe5b60200101907effffffffffffffffffffffffffffffffffffffffffffffffffffffffffffff1916908160001a90535061382887604188036041846001612b37565b5060606040518060400160405280602081526020017ffd94fa71bc0ba10d39d464d0d8f465efeef0a2764e3887fcc9df41ded20f505c81525090506138738160006020856042612b37565b5061391c6002836040518082805190602001908083835b602083106138ad578051825260208201915060208101905060208303925061388a565b6001836020036101000a038019825116818451168082178552505050505050905001915050602060405180830381855afa1580156138ef573d6000803e3d6000fd5b5050506040513d602081101561390457600080fd5b81019080805190602001909291905050508585613528565b94508461393157600095505050505050613af8565b60606040518060600160405280604081526020016145d8604091399050606060426040519080825280601f01601f1916602001820160405280156139845781602001600182028038833980820191505090505b50905060fe60f81b8160008151811061399957fe5b60200101907effffffffffffffffffffffffffffffffffffffffffffffffffffffffffffff1916908160001a9053506139d88a60036041846001612b37565b50606060028b6045815181106139ea57fe5b602001015160f81c60f81b60f81c60ff16016040519080825280601f01601f191660200182016040528015613a2e5781602001600182028038833980820191505090505b509050613a418b60448351846000612b37565b50613aea6002836040518082805190602001908083835b60208310613a7b5780518252602082019150602081019050602083039250613a58565b6001836020036101000a038019825116818451168082178552505050505050905001915050602060405180830381855afa158015613abd573d6000803e3d6000fd5b5050506040513d6020811015613ad257600080fd5b81019080805190602001909291905050508285613528565b975087985050505050505050505b92915050565b60008073ffffffffffffffffffffffffffffffffffffffff16600260009054906101000a900473ffffffffffffffffffffffffffffffffffffffff1673ffffffffffffffffffffffffffffffffffffffff161480613b8657506000613b84600260009054906101000a900473ffffffffffffffffffffffffffffffffffffffff166120ae565b145b15613b9757613b9560006120b9565b505b600260009054906101000a900473ffffffffffffffffffffffffffffffffffffffff1673ffffffffffffffffffffffffffffffffffffffff166338cc48316040518163ffffffff1660e01b8152600401602060405180830381600087803b158015613c0157600080fd5b505af1158015613c15573d6000803e3d6000fd5b505050506040513d6020811015613c2b57600080fd5b810190808051906020019092919050505073ffffffffffffffffffffffffffffffffffffffff16600160009054906101000a900473ffffffffffffffffffffffffffffffffffffffff1673ffffffffffffffffffffffffffffffffffffffff1614613d7657600260009054906101000a900473ffffffffffffffffffffffffffffffffffffffff1673ffffffffffffffffffffffffffffffffffffffff166338cc48316040518163ffffffff1660e01b8152600401602060405180830381600087803b158015613cfa57600080fd5b505af1158015613d0e573d6000803e3d6000fd5b505050506040513d6020811015613d2457600080fd5b8101908080519060200190929190505050600160006101000a81548173ffffffffffffffffffffffffffffffffffffffff021916908373ffffffffffffffffffffffffffffffffffffffff1602179055505b6000600160009054906101000a900473ffffffffffffffffffffffffffffffffffffffff1673ffffffffffffffffffffffffffffffffffffffff16632ef3accc86856040518363ffffffff1660e01b81526004018080602001838152602001828103825284818151815260200191508051906020019080838360005b83811015613e0d578082015181840152602081019050613df2565b50505050905090810190601f168015613e3a5780820380516001836020036101000a031916815260200191505b509350505050602060405180830381600087803b158015613e5a57600080fd5b505af1158015613e6e573d6000803e3d6000fd5b505050506040513d6020811015613e8457600080fd5b81019080805190602001909291905050509050823a02670de0b6b3a764000001811115613eb7576000801b91505061405d565b6060613ec2856140c2565b9050600160009054906101000a900473ffffffffffffffffffffffffffffffffffffffff1673ffffffffffffffffffffffffffffffffffffffff1663c55c1cb68360008985896040518663ffffffff1660e01b8152600401808581526020018060200180602001848152602001838103835286818151815260200191508051906020019080838360005b83811015613f67578082015181840152602081019050613f4c565b50505050905090810190601f168015613f945780820380516001836020036101000a031916815260200191505b50838103825285818151815260200191508051906020019080838360005b83811015613fcd578082015181840152602081019050613fb2565b50505050905090810190601f168015613ffa5780820380516001836020036101000a031916815260200191505b5096505050505050506020604051808303818588803b15801561401c57600080fd5b505af1158015614030573d6000803e3d6000fd5b50505050506040513d602081101561404757600080fd5b8101908080519060200190929190505050925050505b9392505050565b806003908051906020019061407a9291906144f2565b5050565b60008060008060405188815287602082015286604082015285606082015260208160808360006001610bb8f192508051915050818193509350505094509492505050565b60606140cc614142565b6140d4614572565b6140e08161040061414e565b6140e981614198565b60008090505b835181101561412b5761411e84828151811061410757fe5b6020026020010151836141a690919063ffffffff16565b80806001019150506140ef565b50614135816141cb565b8060000151915050919050565b60405180590338823950565b600081905060006020828161415f57fe5b0614614178576020818161416f57fe5b06602003810190505b808360200181815250506040518084526000815281810160405250505050565b6141a38160046141d9565b50565b6141b382600283516141fa565b6141c6818361433a90919063ffffffff16565b505050565b6141d68160076141d9565b50565b6141f6601f60058360ff16901b17836143e590919063ffffffff16565b5050565b60178111614226576142218160058460ff16901b60ff1617846143e590919063ffffffff16565b614335565b60ff81116142675761424b601860058460ff16901b17846143e590919063ffffffff16565b614261816001856144259092919063ffffffff16565b50614334565b61ffff81116142a95761428d601960058460ff16901b17846143e590919063ffffffff16565b6142a3816002856144259092919063ffffffff16565b50614333565b63ffffffff81116142ed576142d1601a60058460ff16901b17846143e590919063ffffffff16565b6142e7816004856144259092919063ffffffff16565b50614332565b67ffffffffffffffff811161433157614319601b60058460ff16901b17846143e590919063ffffffff16565b61432f816008856144259092919063ffffffff16565b505b5b5b5b5b505050565b614342614572565b826020015183600001515183510111156143725761437183600261436b8660200151865161448c565b026144a8565b5b60008060008451905085518051602081830101945086518101825260208701935050505b602081106143b95781518352602083019250602082019150602081039050614396565b60006001826020036101000a039050801983511681855116818117865250508694505050505092915050565b8160200151600183600001515101111561440b5761440a8260028460200151026144a8565b5b815180516020818301018381536001820183525050505050565b61442d614572565b83602001518460000151518301111561445b5761445a84600261445487602001518661448c565b026144a8565b5b60006001836101000a0390508451805184818301018684198251161781528582018352505050849150509392505050565b60008183111561449e578290506144a2565b8190505b92915050565b6060826000015190506144bb838361414e565b6144c5838261433a565b50505050565b60405180608001604052806004905b60608152602001906001900390816144da5790505090565b828054600181600116156101000203166002900490600052602060002090601f016020900481019282601f1061453357805160ff1916838001178555614561565b82800160010185558215614561579182015b82811115614560578251825591602001919060010190614545565b5b50905061456e919061458c565b5090565b604051806040016040528060608152602001600081525090565b6145ae91905b808211156145aa576000816000905550600101614592565b5090565b9056fe706c61796572206973207374696c6c2077616974696e6720666f722074686520726573756c747fb956469c5c9b89840d55b43537e66a98dd4811ea0a27224272c2e5622911e8537a2f8e86a46baec82864e98dd01e9ccc2f8bc5dfc9cbe5a91a290498dd96e450726f7661626c65207175657279207761732073656e742c207374616e64696e6720627920666f722074686520616e737765722e2e2ea265627a7a723158200f1a220bd53847dd0099048dd2d4a57f3277f19cc9fedabbbdb4d0f91486952a64736f6c634300050c0032",
  "source": "// SPDX-License-Identifier: tomas\r\npragma solidity 0.5.12;\r\n\r\nimport \"./ownable.sol\";\r\nimport \"./provableAPI_0.5.sol\";\r\n\r\ncontract Flipcoin is Ownable, usingProvable {\r\n\r\n  // keep the latest number from oracle\r\n  uint256 public latestNumber;\r\n\r\n  // structure for every player with all information about\r\n  //  current game and balances\r\n  struct CoinPlay {\r\n    uint playWin;\r\n    uint playLoss;\r\n    uint playBalance;\r\n    uint playLastBet;\r\n    uint playLastCoinSide;\r\n    bool playLastResult;\r\n    bool playWaiting;\r\n    bool playExists;\r\n  }\r\n\r\n  // list of players\r\n  mapping(address => CoinPlay) private coinPlayers;\r\n  // list of players waiting for oracle\r\n  mapping(bytes32 => address) private waitingToProcessQuery;\r\n\r\n  // event for each player the result of the current game\r\n  event eventPlayResult(address playAddress, bool playResult);\r\n  // event for a notification after a withdrawal\r\n  event eventWithdrawResult(uint withdrawResult);\r\n\r\n  // event for the callback, sends a message if the verification fails\r\n  event testCallback(string test);\r\n  // event for a provable query\r\n  event logNewProvableQuery(string description);\r\n  // event for a random number from oracle\r\n  event generatedRandomNumber(uint256 randomNumber);\r\n\r\n  // set proof type\r\n  constructor() public {\r\n    provable_setProof(proofType_Ledger);\r\n  }\r\n\r\n\r\n  // callback function for oracle\r\n  //  process waiting players\r\n  //  compare the entered coin side with a random number (random coin side)\r\n  //  win - increase balance and number of wins\r\n  //  lose - update number of losses\r\n  //  save the result and emit the result in an event\r\n  //  set the player to not-waiting state and delete the player form the waiting list\r\n  function __callback(bytes32 _queryId, string memory _result, bytes memory _proof) public {\r\n    require(msg.sender == provable_cbAddress());\r\n    if (provable_randomDS_proofVerify__returnCode(_queryId, _result, _proof) != 0) {\r\n      emit testCallback(\"proof verification has failed\");\r\n    }\r\n    else {\r\n      address player = waitingToProcessQuery[_queryId];\r\n      uint256 randomNumber = uint256(keccak256(abi.encodePacked(_result))) % 2;\r\n      latestNumber = randomNumber;\r\n      if (latestNumber == 1) {\r\n        coinPlayers[player].playBalance += (coinPlayers[player].playLastBet * 2);\r\n        coinPlayers[player].playWin += 1;\r\n        coinPlayers[player].playLastResult = true;\r\n        emit eventPlayResult(player, true);\r\n      }\r\n      else {\r\n        coinPlayers[player].playLoss += 1;\r\n        coinPlayers[player].playLastResult = false;\r\n        emit eventPlayResult(player, false);\r\n      }\r\n      coinPlayers[player].playWaiting = false;\r\n      delete waitingToProcessQuery[_queryId];\r\n    }\r\n  }\r\n\r\n\r\n  // game with random numbers from oracle\r\n  //  process players who are not waiting (who just stared a game)\r\n  //  put the palyer to the waiting list\r\n  //  save information about current game (bet, coin side)\r\n  //  send provable random query and get the query id back\r\n  //  assign players to query ids\r\n  function flipcoinPlayOracle(uint coinSide) public payable {\r\n    require(msg.value > 0, \"this function has a cost\");\r\n    require(coinPlayers[msg.sender].playWaiting == false, \"player is still waiting for the result\");\r\n\r\n    uint256 QUERY_EXECUTION_DELAY = 0;\r\n    uint256 NUM_RANDOM_BYTES_REQUESTED = 1;\r\n    uint256 GAS_FOR_CALLBACK = 300000;\r\n\r\n    address player = msg.sender;\r\n\r\n    coinPlayers[player].playExists = true;\r\n    coinPlayers[player].playWaiting = true;\r\n    coinPlayers[player].playLastBet = msg.value;\r\n    coinPlayers[player].playLastCoinSide = coinSide;\r\n\r\n    bytes32 queryId = provable_newRandomDSQuery(QUERY_EXECUTION_DELAY, NUM_RANDOM_BYTES_REQUESTED, GAS_FOR_CALLBACK);\r\n    emit logNewProvableQuery(\"Provable query was sent, standing by for the answer...\");\r\n    waitingToProcessQuery[queryId] = player;\r\n  }\r\n\r\n\r\n  // game with pseudo random number\r\n  //  save information about current game (bet, coin side)\r\n  //  compare the entered coin side with a random number\r\n  //  win - increase balance and number of wins\r\n  //  lose - update number of losses\r\n  //  save the result and emit the result in an event\r\n  function flipcoinPlay(uint coinSide) public payable {\r\n    require(msg.value > 0, \"this function has a cost\");\r\n    address player = msg.sender;\r\n\r\n    coinPlayers[player].playLastBet = msg.value;\r\n    coinPlayers[player].playLastCoinSide = coinSide;\r\n\r\n    coinPlayers[player].playExists = true;\r\n    if (coinSide == (now % 2)) {\r\n      coinPlayers[player].playBalance += (msg.value * 2);\r\n      coinPlayers[player].playWin += 1;\r\n      coinPlayers[player].playLastResult = true;\r\n      emit eventPlayResult(player, true);\r\n    }\r\n    else {\r\n      coinPlayers[player].playLoss += 1;\r\n      coinPlayers[player].playLastResult = false;\r\n      emit eventPlayResult(player, false);\r\n    }\r\n  }\r\n\r\n\r\n  // get all information about a player\r\n  function getCoinPlayer() public view returns(uint playWin, uint playLoss, uint playBalance, uint playLastBet, uint playLastCoinSide, bool playLastResult, bool playWaiting, bool playExists) {\r\n    address player = msg.sender;\r\n    if (coinPlayers[player].playExists == true) {\r\n      return (coinPlayers[player].playWin, coinPlayers[player].playLoss, coinPlayers[player].playBalance, coinPlayers[player].playLastBet, coinPlayers[player].playLastCoinSide, coinPlayers[player].playLastResult, coinPlayers[player].playWaiting, coinPlayers[player].playExists);\r\n    }\r\n  }\r\n\r\n  // get players account balance\r\n  function getCoinPlayerBalance() public view returns(uint) {\r\n    address player = msg.sender;\r\n    return coinPlayers[player].playBalance;\r\n  }\r\n\r\n  // withdraw all winnings\r\n  //  max withdrawal is the max balance of the contract\r\n  //  --> other solution can be implemented:\r\n  //      first fund the contract and then play\r\n  // checks - effects - interactions\r\n  function withdrawWinBalance() public {\r\n    // checks\r\n    address player = msg.sender;\r\n    uint toTransferMAX = address(this).balance;\r\n    uint toTransfer = coinPlayers[player].playBalance;\r\n\r\n    delete coinPlayers[player];\r\n\r\n    if (toTransfer <= toTransferMAX) {\r\n      msg.sender.transfer(toTransfer);\r\n      emit eventWithdrawResult(toTransfer);\r\n    }\r\n    else {\r\n      msg.sender.transfer(toTransferMAX);\r\n      emit eventWithdrawResult(toTransferMAX);\r\n    }\r\n  }\r\n\r\n\r\n  // destroy contract\r\n  function destroyContract() public onlyOwner {\r\n    selfdestruct(address(uint160(owner)));\r\n  }\r\n\r\n}\r\n",
  "sourcePath": "C:/ethereum/flipcoin/contracts/flipcoin.sol",
  "compiler": {
    "name": "solc",
    "version": "0.5.12+commit.7709ece9.Emscripten.clang"
  },
  "schemaVersion": "3.0.16",
  "updatedAt": "2020-11-23T21:03:23.342Z",
  "devdoc": {
    "methods": {
      "__callback(bytes32,string)": {
        "details": "The following `__callback` functions are just placeholders ideally     meant to be defined in child contract when proofs are used.     The function bodies simply silence compiler warnings."
      }
    }
  },
  "userdoc": {
    "methods": {}
  }
}